:020000020000FC
:1000000086C00000189500001895000018950000A3
:10001000189500001895000018950000189500002C
:10002000189500001895000018950000189500001C
:10003000189500001895000018950000189500000C
:1000400018950000189500000FC0000018950000DA
:1000500018950000189500001895000018950000EC
:1000600018950000189500000F931F932F930E947E
:10007000F9000091C600003009F045C01091C000A1
:1000800017FFFCCF0091C600003131F0003289F03B
:100090000033E1F0003439F11091C00017FFFCCFBC
:1000A000202F0091C600802F803051F10E949100D6
:1000B0002AC01091C00017FFFCCF202F0091C6006E
:1000C000802F8030E9F00E9491001DC01091C00087
:1000D00017FFFCCF202F0091C600802F803081F0C9
:1000E0000E94910010C01091C00017FFFCCF202F7C
:1000F0000091C600802F803019F00E94910003C04B
:100100000E94F90000C02F911F910F911895F8E0FF
:10011000FEBFFFEFFDBF5FEF5AB90E940F01789459
:10012000FFCF0F938A95203131F0203239F0203300
:1001300041F0203449F0F2E0E6E609C0F2E0EAE6F8
:1001400006C0F2E0EEE603C0F2E0E2E700C075911F
:1001500076957695769576950E94C10075917695FF
:100160007695769576950E94C100759176957695EF
:10017000769576950E94C100803099F600C00F9167
:1001800008951F9319E01A95103089F1770F08F040
:1001900017C05A9A00000000000000000000000094
:1001A00000000000000000005A980000000000005D
:1001B0000000000000000000000000000000E3CF8D
:1001C0005A9A000000000000000000005A98000049
:1001D000000000000000000000000000000000001F
:1001E000000000000000000000000000CCCF1F91C4
:1001F00008950F931F9318E11A9500E00E94C10023
:1002000000E00E94C10000E00E94C1001030A1F790
:1002100001E00E942C0100C01F910F9108950F93DF
:100220001F9310E007E61093C5000093C40000E997
:100230000093C1000EE00093C2001F910F9108953A
:100240000F931F93002711270395F1F713951E3184
:10025000D9F71F910F9108950F930E9420010A95DD
:10026000E1F70F91089500FFFF0000FFFF0000FF7E
:06027000FF0000FFFF008B
:00000001FF
